:1000000003308A00592B00000A108A100A11820757
:1000100028340C3401340634201020102010201015
:10002000201020102010201000004929D224C720C1
:10003000C3204F00C3274E23C529D3275200D337EF
:10004000EC37A039E5316F104939F23467170001F8
:10005000D337EC37A03AED34E4370001A519EC3A78
:10006000A512A02AED34E430E432000036308400DA
:100070008313000803194A280130F800F701F70B31
:100080003F28F80B3E284A30F700F70B4528482850
:10009000800B3C2808000830F80000008711A011F0
:1000A00020088316870000008312C30D0712031C6B
:1000B0005F282016200883168700632883122012E9
:1000C00020088316870000008312A01520088316DD
:1000D00087008312871D6A28F80B4D2800008711BE
:1000E000A011200883168700000083122016200824
:1000F00083168700000000008312A01520088316D5
:1001000087008312871D8228F8010000071A7814DF
:100110008711A0112008831687008312071220126E
:10012000200883168700831208004108003A03194B
:100130009D28013A0319BD28DE28400EF700F03053
:10014000F70577082504C200C3004B200000400ECD
:10015000F700F030F705770804382504C200C30023
:100160004B20B228400EF700F030F7057708FB3936
:100170002504C200C3004B20DE28400EF700F030FB
:10018000F705770801382504C200C3004B200000A2
:10019000400EF700F030F7057708013804382504E1
:1001A000C200C3004B20D428400EF700F030F70502
:1001B000770801382504C200C3004B200800201630
:1001C00020088316870000008312A01520088316DC
:1001D0008700000083120712201220088316870070
:1001E000000083128711A011200883168700831254
:1001F0002108C3004B203D0EBF000F30BF053F0854
:10020000C0003E08C10095203D080F39BF00C00066
:100210003E08C100952020122008831687000000A8
:100220008312A0152008831687008312871D1629C4
:1002300000001A29000020162008831687000000FD
:10024000831208000130BD00BE01DF200230B6007D
:1002500036200130A40008002C08A1002E08A200BE
:100260002D08A3000B138B138B1B33293230B600E0
:100270003620201620088316870000008312A01560
:10028000200883168700000083120712201220081E
:1002900083168700000083128711A011200883169F
:1002A000870083122108C3004B20C001C1019520A3
:1002B0000F30B60036200130AF002F08033C031C7E
:1002C0006A290330C000C10195200530B6003620F0
:1002D000AF0A5D290230C000C10195200530B6008B
:1002E0003620201220088316870000008312A015F4
:1002F0002008831687008312871D7C29000080292F
:100300000000201620088316870000008312AF012A
:100310002F08033C031C97292F080420B000BD00C0
:10032000BE01DF200530B6003620AF0A8829222121
:10033000C0308B048A110A12862BAC080319A3293A
:100340000830A500A429A5018A110A12892B3708B3
:1003500022020318AE292208B800B0293708B800D5
:100360003808013A0319BE29033A0319C029013A92
:100370000319C329073A0319C629C929BA01CA2989
:100380004030BA00CA291430BA00CA295430BA0021
:10039000CA29BA01360823020318D1292308B90053
:1003A000D3293608B900013039023A07BB003B08AF
:1003B0008038BC00BD00BE01DF20080035080C3AC3
:1003C0000319E929063A0319EB29023A0319F82916
:1003D000FD292221022AA40A240822020318F22954
:1003E0000130A4000130B6002408B700A721022A7A
:1003F0001030BD00BE01DF20022A3508BD000130EB
:10040000BE00DF2008000B08AD008B138316031716
:100410008C170C140000000083120C087F3903199C
:100420004A2A0313AE0003170D080313AF00031786
:100430000F080313B0002E08B500DE212F080317A4
:100440008D000313300803178F0083168C170C14CC
:100450000000000083120C0D0E0D7F3903194A2A8B
:100460000313AE0003170D080313AF0003170F08A3
:100470000313B0002E08B500DE212F0803178D00EE
:100480000313300803178F008D0A03198F0A031313
:10049000062A03170313AD1B8B1708000130B600A3
:1004A0002C08B700A7210C3003178D0000308F00F7
:1004B000031303220130B6002C08B700A72108005F
:1004C0001030B200F701FA01AF0CAE0C031C6E2A1B
:1004D0003008F7070318FA0A3108FA07FA0CF70C84
:1004E000F90CF80CB20B642A8A110A12EB2BF801F2
:1004F000F901F701FA013108031D812A30080319B7
:100500009B2A1030B2000310AE0DAF0DF70DFA0D9F
:1005100031087A02031D8E2A30087702031C972ABD
:100520003008F702031CFA033108FA020314F80D2D
:10053000F90DB20B832A8A110A12F72BB4010408B1
:10054000B3003410831B34142D0EF038AF00AF0706
:10055000E23EB000323EB2002D080F39B007B007BE
:10056000B207E93EB100B107B1072C0E0F39B10750
:10057000B207B10DB20DB209B20D2C080F39B20796
:10058000AF0D0730AE000A30B207B103031CC42A16
:10059000B107B003031CC82AB007AF03031CCC2A61
:1005A000AF07AE03031CD02A2E308400831307301C
:1005B000330533138407323004020319331700085C
:1005C000F700031DEB2A331BEB2A331AFD2AB3195C
:1005D000EB2A2030EE2AB31533123030F707AD0185
:1005E0000408AC002D10831B2D147708B500DE2104
:1005F0002C08840083132D188317840A331FDB2AE9
:100600008A110A12322C0B08AD008B1383160317C4
:100610008C170C14000000000318352B83120C08F3
:100620007F390313AE0003170D080313AF00031740
:100630000F080313B0002E08B500DE212F080317A2
:100640008D000313300803178F0083168C170C14CA
:100650000000000083120313AC0B2F2B322B8316E8
:100660000317352B542B8316031783120C0D0E0D15
:100670007F390313AE0003170D080313AF000317F0
:100680000F080313B0002E08B500DE212F08031752
:100690008D000313300803178F008D0A03198F0A8A
:1006A00003100313AC0B062BAD1B8B178A110A1218
:1006B0003F2CFF30A0000130A4000830A5008316B5
:1006C0001F149F141F159F1107309C0083131F30A8
:1006D000830501308500FE30860006108312061463
:1006E00083161F1383121F179F1783169F138312DE
:1006F0001F1483161F109F141F159F154E30831251
:10070000AC001030AD000230AE002C290130AC003E
:100710009D290130B600B700A721153003178D00C1
:1007200000308F00031303220130B6000230B700FF
:10073000A7211A3003178D0000308F000313032206
:100740000C30AC00FA30B6003620AC0BA22B0130D6
:10075000AC004E220230AC004E22FF30A60000302A
:10076000F8001F08C73978049F000630F700F70B20
:10077000B72B00001F151F19BB2BA8011E08A700CF
:10078000AA01A901A808031DCD2B27084F3C031C73
:10079000CD2BAA016430A900FB2BA808031DD42B84
:1007A0002708FE3C0318D72BAA01A901FB2B270819
:1007B000FF3CF700FA012808031C280FFA0277080B
:1007C000AC007A08AD00AF016430AE007A08B10029
:1007D0007708B000602A7908AD007808AC00790885
:1007E000AF007808AE00B101B030B000772A7908C8
:1007F000AA007808A900A808031D022C2708E53CD8
:100800000318092C0130AB00831606108312061062
:100810000E2CAB01831606108312061426082B0239
:100820000319282C0130AC004E222B0B1F2C1F303B
:1008300003178D0000308F0003130322262C28306D
:1008400003178D0000308F00031303222B08A6002E
:100850000230AC004E22023084002A08AD00290884
:10086000AC009E2A2530B500DE21313003178D0003
:1008700000308F00031008300313AC00032B04304A
:10088000AC00FA30B6003620AC0B412CAF2B630025
:02400E00393F38
:00000001FF
;PIC16F877A
;CRC=4E9D  CREATED="11-jun-25 22:09"
